:0400000000EF88F095
:10000800E244E244E244E2444000E2444000E24484
:10001800E244E244E244E244E244E244E244E244A8
:10002800E244400040004000E244E244E244E2444A
:10003800E244E244E244E244E244E244E244E24488
:10004800E244E244E244E24440004000E244E24444
:10005800E244E244E2444000E244E244E244E2444E
:10006800E244E244E244E244E244E244E244E24458
:10007800E244E244E244E2444000E244E244E2442E
:10008800E244E244E244E244E244E244E244E24438
:10009800E244E244E244E2444000E24440004000DA
:1000A800E244E244E244E244E244E244E244E24418
:1000B800E244E244E244E244E244E244E244E24408
:1000C800E244E244E244E244E244E244E244E244F8
:1000D800E244E244E244E244E244E244E244E244E8
:1000E8004000E244E244E244400040004000400056
:0A00F800E244E244E244E244FF0067
:02FFFE00000001
:020000040001F9
:10000000F0FD5664D2567C20465700200F57002042
:10001000335700225D5628560056765078142356E2
:100020005340135628206450661C2F50474100202F
:100030007750661C395047412A206350661C414264
:1000400000206D57004013204B570056005628568D
:100050006AA3BA2052570056005628566AA3F1F5F3
:10006000F1F5BB5653C0F0A092146E1277C1F0A107
:100070009314761277C1C0C1A21C85F1DD9314865A
:10008000F1DA931486C0C1203054C8DEB121D5E026
:100090002C502E0054D426C02C202E0054D42C607A
:1000A00054D42C102E5054D454FD533954002000F5
:1000B0005592565C2C602E0053A814C07798769801
:1000C000429DFFFFFFFFFFFFFFFFFFFFFFFFFFFF5F
:1000D000FFFFFFFFFFFFFFFFFFFFFFFFFFFFFFFF30
:1000E000FFFFFFFFFFFFFFFFFFFFFFFFFFFFFFFF20
:1000F000FFFFFFFFFFFFFFFFFFFFFFFFFFFFFFFF10
:10010000DCB4D0B7F0D484F18BB627E95648770435
:10011000223A562827EC564827ED564827EE5648EF
:1001200027EF5648565374024013DCB4D0B7F0D4CE
:1001300084F18BB65600566A27A3E05648772E22E4
:100140003A56285600566A27A3E456485600566A7F
:1001500027A3E556485600566A27A3E65648560098
:10016000566A27A3E756485653742C4013FFFFFFE7
:10017000FFFFFFFFFFFFFFFFFFFFFFFFFFFFFFFF8F
:10018000FFFFFFFFFFFFFFFFFFFFFFFFFFFFFFFF7F
:10019000FFFFFFFFFFFFFFFFFFFFFFFFFFFFFFFF6F
:1001A000FFFFFFFFFFFFFFFFFFFFFFFFFFFFFFFF5F
:1001B000FFFFFFFFFFFFFFFFFFFFFFFFFFFFFFFF4F
:1001C000FFFFFFFFFFFFFFFFFFFFFFFFFFFFFFFF3F
:1001D000FFFFFFFFFFFFFFFFFFFFFFFFFFFFFFFF2F
:1001E000FFFFFFFFFFFFFFFFFFFFFFFFFFFFFFFF1F
:1001F000FFFFFFFFFFFFFFFFFFFFFFFFFFFFFFFF0F
:100200002059570052F3A6F6D0F5B6F0B7200055A6
:100210009256535600567650781421565353054241
:1002200006207150661C2B56534013202B50661C21
:100230003B56285653533952D24206202D50661C45
:100240004B56285653546D52D24206202A50661CF3
:100250005B56285653540052D24206202F50661C3B
:100260006B5628565354FD52D24206206350661CEA
:1002700077565352F34206207350661C8554F65647
:100280005352D24206207050661C91565354544229
:1002900006207250661CA120965700408752D24219
:1002A00006A6F6F612C2202E50661CB8A6F512C29B
:1002B000562852DE52ED421352C414C2562852DE62
:1002C00053194213202F506612D1203950661AD18B
:1002D000C1C0A6F6FAF5B6C0A6F6F1F5B6C0A6F608
:1002E0001AE45305A71CEC67200054C8C0A6F5FA11
:1002F000F6B6C0200054C8201054C8202054C8208E
:100300003054C842D82C302E2054D42C202E1054D7
:10031000D42C102E0054D442D8566AA32E00DFF1FC
:1003200097BF2FA6F51229A7E4A3E067DFF1971C7A
:1003300038A6F6F6FAF5F5B6C054A62C002E102D08
:10034000EDB02FEDF190146853A8147012602C409A
:100350002E0054D42C002E1054D42C102E4054D4E3
:100360002C002E105396436E2C002E10538743768C
:10037000200054C8436E200053C22C102E2054D4A9
:100380002C202E3054D4C0F0BDF0BFF02FE92DEB5F
:10039000FBE06D7F8CC0F0BDF0BFF0FAF92FE8F103
:1003A0002DEBFBE06D7F9CC0F0B0A0F4BD2DE9B15A
:1003B000A0F4BF2FA1F1E814BD12C143C070AAC0C0
:1003C000C1C121ECF4B3F0B243D2A2F4B121E91CD3
:1003D000D46273CAECF192E4A25487DFB121E9142C
:1003E000E9ECF2E41AE8D1E6D14471FFFFFFFFFF28
:1003F000FFFFFFFFFFFFFFFFFFFFFFFFFFFFFFFF0D
:10040000200054EC1C24201054EC1C242C002E1032
:1004100055802DE5ECB02FECF1802DE41A20D1E6CB
:10042000542A4376200054C844222C402E0054E421
:10043000200054CE2A402C002E102010F0B8A8F432
:10044000BB2BE9144CF4F2B953877948D1201054EE
:1004500071783EC02000558B56532010558B565353
:100460002020558B56532030558B5653C054F6439D
:10047000391486B3A0B2F0B1D0127D23E921E06334
:10048000A31C84FA7178C014A5B5A0B2F0B4D0BF93
:100490001298A5F4B323E9BFA4F4B121BFE065A588
:1004A0001CA3FA748EC02C002E102DECBA2FECBBBE
:1004B000ABF19A12C0F4F220105471AA2FE444C791
:1004C00020005471AB2DE4C0F021E4E5E6E7F02113
:1004D000E071CFC02FEC2DE42FED2DE52FEE2DE6B2
:1004E0002FEF2DE72FE92DE06D7FE4C0F0B121E97A
:1004F0001CF571EEC1C02E002FEDF4E5C0200053B5
:10050000C254EC1C41201054EC1C472C002E1055FA
:10051000802FE52DEC1C2A2FECF2E41A1FD1E6DE29
:10052000BD2DE91C3DD1548745172DECF8B02FECBB
:10053000F190E4123DF4F220105471F0E4554C4374
:1005400076200021D2E6C0200054C8C02C102E0016
:100550002A40204054CED1B8F0B953A81A68D9F136
:10056000991468539669455AA8F4BB2BA9E0D12089
:1005700000547178582C002E1054D42E4054E4C0EE
:100580002DEDB02FEDF190148ACFC022585628A03F
:100590005648223D21EE149A22455628222B21ED61
:1005A00014A4222D562821ECBADFB121E914B1564A
:1005B00048AA1CB8222E5628F0D1BBDFF19B14D0DC
:1005C000B121E95648F0AA9B1CCE222E56287BBBAF
:1005D000C0FFFFFFFFFFFFFFFFFFFFFFFFFFFFFF6A
:1005E000FFFFFFFFFFFFFFFFFFFFFFFFFFFFFFFF1B
:1005F000FFFFFFFFFFFFFFFFFFFFFFFFFFFFFFFF0B
:100600002C0C19022E0C7F06190DF14610FA000071
:10061000F6007D08B32C0C191CF1461FFA0000F6F9
:10062000007D17B21927C1C02E002F2C0BA3F1F5A6
:100630000000000000E1F67D302C0BA2FA0000E182
:100640002E0E7F42F67D3FC02230F1FB1A5062F23F
:10065000B34628220D5628220A5628C0220D4628C5
:10066000220A46282E002FD1E1C0F0D3921473F055
:10067000D983B3F0B2C02E402FA3E1C0F4F2BBD0B7
:100680002E4056877B7FC02FD8E1D85690D0E1C04E
:100690002C452EEF7C947D947E947F94F81C90C022
:1006A000FFFFFFFFFFFFFFFFFFFFFFFFFFFFFFFF5A
:1006B000FFFFFFFFFFFFFFFFFFFFFFFFFFFFFFFF4A
:1006C000FFFFFFFFFFFFFFFFFFFFFFFFFFFFFFFF3A
:1006D000FFFFFFFFFFFFFFFFFFFFFFFFFFFFFFFF2A
:1006E000FFFFFFFFFFFFFFFFFFFFFFFFFFFFFFFF1A
:1006F000FFFFFFFFFFFFFFFFFFFFFFFFFFFFFFFF0A
:1007000032A2140B56287100604700A31C04C00DD0
:10071000496E74656C204D43532D3420283430309D
:1007200034290D0A54696E79204D6F6E69746F72A9
:100730000D0A000D666F7220454D555A38302D3424
:100740003030340D0A001B401F02002042414E4B46
:100750003D0020434849503D000D0A43616C6375DC
:100760006C61746F72204D6F64650D0A000D0A6430
:100770003A64756D702052414D2C20773A7772693A
:1007800074652052414D2C20633A43616C63206DA7
:100790006F64650D0A00205351520D0A0032C000EB
:1007A0000000000000000000000000000000000049
:1007B0000000000000000000000000000000000039
:1007C0000000000000000000000000000000000029
:1007D0000000000000000000000000000000000019
:10100000A8EF89F0000EC26E000EC16E000EBE6E1B
:10101000000EBF6E000EC06E070ECA6EFE0EC66ECC
:10102000C768000EC86EF30EC96E030E0401186F78
:10103000000E106F000E086F070E206FFE0E006F7F
:10104000000E196F000E216F000E096F0E0E016F5A
:10105000000E116F000E0201896F000E886F000EE6
:10106000876F000E866F000E0401226F000E026F64
:10107000000E0A6F000E126F000E1A6F03690B69E3
:1010800013691B69070E236F04690C6914691C69D5
:101090000F0E246F080E02011B6F070E1C6F12004B
:1010A000D4EC88F0D69ED69C010EF86EC09ED1ACD2
:1010B000FED7D1BCFED7D1A8FED7D1B8FED7CF502E
:1010C0000F0B016ED1A8FED7D1B8FED7CF38F00BE9
:1010D0000112D1BAFED7D1AAFED700F000F0BE802F
:1010E000BE90CF50046E0F0BF76E01C5F6F40800EA
:1010F000F550026E036E033A039E04BE038E03C5D1
:10110000C0F4D1A8FED7D1B8FED7029E04BE028E8D
:10111000D1BAFED7D1AAFED702C5C0F4D1AAFED754
:10112000D1BAFED7000EC06ED1A8FED7D1B8FED777
:10113000D1A8FED7D1A8BAD7FDD7D68A000ED6BE81
:10114000010E056ED69E550E0401596FAA0E596FF9
:101150005991000E5F6F000E5E6F080E5D6F550EA9
:10116000596FAA0E596F598105B002D0D69E01D091
:10117000D68E1200010E0001D56F0B0ED76F330E05
:10118000D86F340ED96F370EDA6F340EDB6F020E64
:10119000DC6F000EDD6F200EDE6F000EDF6F000EC5
:1011A000D46F860ED66F12009DEC88F096EC89F015
:1011B00002EC88F0B6EC89F06AEC89F038EC89F042
:1011C000EDEC88F01FEC89F006EC89F051EC89F029
:1011D00083EC89F0BAEC88F01200070ED56F800E10
:1011E000D76F330ED86F340ED96F350EDA6F360ED7
:1011F000DB6F040EDC6F200EDD6F000EDE6F000E65
:10120000DF6F000ED46F800ED66F1200060ED56F02
:10121000020ED76F330ED86F340ED96F350EDA6FDA
:10122000360EDB6F280EDC6F000EDD6F000EDE6FFA
:10123000000EDF6F000ED46F800ED66F1200040E0A
:10124000D56F040ED76F330ED86F340ED96F350EAD
:10125000DA6F360EDB6F800EDC6F000EDD6F2A0E4C
:10126000DE6F000EDF6F000ED46F830ED66F12009C
:10127000030ED56F080ED76F330ED86F340ED96FAB
:10128000350EDA6F360EDB6F020EDC6F080EDD6F87
:10129000200EDE6F000EDF6F000ED46F820ED66F51
:1012A0001200020ED56F0B0ED76F340ED86F350EAD
:1012B000D96F370EDA6F350EDB6F020EDC6F000E62
:1012C000DD6F200EDE6F000EDF6F000ED46F860E16
:1012D000D66F1200000ED56F0B0ED76F2A0ED86F87
:1012E000330ED96F370EDA6F330EDB6F020EDC6F01
:1012F000000EDD6F200EDE6F000EDF6F000ED46F6C
:10130000860ED66F1200000E0401466F010E476F65
:10131000000E426F000E416F000E406F020E456FCF
:10132000970E446FAE0E436F468F1200000E000101
:10133000606F000E616F000E636F000E646F000E31
:10134000656F000E666F000E676F000E686F12000B
:10135000046A036A026A016A0401080E5D6F000EE6
:101360005E6F000E5F6F000150EF88F0600E0001AD
:10137000AD6F000EAF6F000EB36F080EB16F000EB1
:0A138000B06F000EAC6F12001100F8
:020000040020DA
:10000000FFFFFFFFFFFFFFFFFFFFFFFFFFFFFFFF00
:10001000FFFFFFFFFFFFFFFFFFFFFFFFFFFFFFFFF0
:10002000FFFFFFFFFFFFFFFFFFFFFFFFFFFFFFFFE0
:10003000FFFFFFFFFFFFFFFFFFFFFFFFFFFFFFFFD0
:020000040030CA
:080000008CFFFFFF9FFFFFFFD3
:01000900FFF7
:00000001FF
